{
  "contractName": "ItemManager",
  "abi": [
    {
      "anonymous": false,
      "inputs": [
        {
          "indexed": false,
          "internalType": "uint256",
          "name": "_itemIndex",
          "type": "uint256"
        },
        {
          "indexed": false,
          "internalType": "uint256",
          "name": "_step",
          "type": "uint256"
        },
        {
          "indexed": false,
          "internalType": "address",
          "name": "_address",
          "type": "address"
        }
      ],
      "name": "SupplyChainStep",
      "type": "event"
    },
    {
      "inputs": [],
      "name": "_owner",
      "outputs": [
        {
          "internalType": "address",
          "name": "",
          "type": "address"
        }
      ],
      "stateMutability": "view",
      "type": "function"
    },
    {
      "inputs": [],
      "name": "isOwner",
      "outputs": [
        {
          "internalType": "bool",
          "name": "",
          "type": "bool"
        }
      ],
      "stateMutability": "view",
      "type": "function"
    },
    {
      "inputs": [
        {
          "internalType": "uint256",
          "name": "",
          "type": "uint256"
        }
      ],
      "name": "items",
      "outputs": [
        {
          "internalType": "contract Item",
          "name": "_item",
          "type": "address"
        },
        {
          "internalType": "enum ItemManager.SupplyChainSteps",
          "name": "_step",
          "type": "uint8"
        },
        {
          "internalType": "string",
          "name": "_identifier",
          "type": "string"
        }
      ],
      "stateMutability": "view",
      "type": "function"
    },
    {
      "inputs": [
        {
          "internalType": "string",
          "name": "_identifier",
          "type": "string"
        },
        {
          "internalType": "uint256",
          "name": "_priceInWei",
          "type": "uint256"
        }
      ],
      "name": "createItem",
      "outputs": [],
      "stateMutability": "nonpayable",
      "type": "function"
    },
    {
      "inputs": [
        {
          "internalType": "uint256",
          "name": "_index",
          "type": "uint256"
        }
      ],
      "name": "triggerPayment",
      "outputs": [],
      "stateMutability": "payable",
      "type": "function"
    },
    {
      "inputs": [
        {
          "internalType": "uint256",
          "name": "_index",
          "type": "uint256"
        }
      ],
      "name": "triggerDelivery",
      "outputs": [],
      "stateMutability": "nonpayable",
      "type": "function"
    }
  ],
  "bytecode": "0x608060405234801561001057600080fd5b50336000806101000a81548173ffffffffffffffffffffffffffffffffffffffff021916908373ffffffffffffffffffffffffffffffffffffffff160217905550611ae3806100606000396000f3fe6080604052600436106200005c5760003560e01c8063800fb83f14620000615780638c55174214620000815780638f32d59b14620000af578063b2bdfa7b14620000df578063bfb231d2146200010f578063cd31831e1462000155575b600080fd5b6200007f600480360381019062000079919062000c86565b62000183565b005b3480156200008e57600080fd5b50620000ad6004803603810190620000a7919062000c2c565b620004d4565b005b348015620000bc57600080fd5b50620000c76200070d565b604051620000d6919062000ef6565b60405180910390f35b348015620000ec57600080fd5b50620000f762000764565b60405162000106919062000ed9565b60405180910390f35b3480156200011c57600080fd5b506200013b600480360381019062000135919062000c86565b62000788565b6040516200014c9392919062000f50565b60405180910390f35b3480156200016257600080fd5b506200018160048036038101906200017b919062000c86565b6200086f565b005b60006001600083815260200190815260200160002060000160009054906101000a900473ffffffffffffffffffffffffffffffffffffffff1690503373ffffffffffffffffffffffffffffffffffffffff168173ffffffffffffffffffffffffffffffffffffffff16146200022f576040517f08c379a0000000000000000000000000000000000000000000000000000000008152600401620002269062000fd8565b60405180910390fd5b348173ffffffffffffffffffffffffffffffffffffffff16633c8da5886040518163ffffffff1660e01b815260040160206040518083038186803b1580156200027757600080fd5b505afa1580156200028c573d6000803e3d6000fd5b505050506040513d601f19601f82011682018060405250810190620002b2919062000cb2565b14620002f5576040517f08c379a0000000000000000000000000000000000000000000000000000000008152600401620002ec9062000fb6565b60405180910390fd5b6000600281111562000330577f4e487b7100000000000000000000000000000000000000000000000000000000600052602160045260246000fd5b60016000600254815260200190815260200160002060000160149054906101000a900460ff1660028111156200038f577f4e487b7100000000000000000000000000000000000000000000000000000000600052602160045260246000fd5b14620003d2576040517f08c379a0000000000000000000000000000000000000000000000000000000008152600401620003c99062000ffa565b60405180910390fd5b600180600084815260200190815260200160002060000160146101000a81548160ff0219169083600281111562000432577f4e487b7100000000000000000000000000000000000000000000000000000000600052602160045260246000fd5b02179055507fa4035636e99f06b7651a604c1019fa4e8779fe68ef27eeb74dff2de348f6199b826001600085815260200190815260200160002060000160149054906101000a900460ff166002811115620004b6577f4e487b7100000000000000000000000000000000000000000000000000000000600052602160045260246000fd5b83604051620004c8939291906200101c565b60405180910390a15050565b620004de6200070d565b62000520576040517f08c379a0000000000000000000000000000000000000000000000000000000008152600401620005179062000f94565b60405180910390fd5b60003082600254604051620005359062000ace565b620005439392919062000f13565b604051809103906000f08015801562000560573d6000803e3d6000fd5b5090508060016000600254815260200190815260200160002060000160006101000a81548173ffffffffffffffffffffffffffffffffffffffff021916908373ffffffffffffffffffffffffffffffffffffffff160217905550600060016000600254815260200190815260200160002060000160146101000a81548160ff021916908360028111156200061d577f4e487b7100000000000000000000000000000000000000000000000000000000600052602160045260246000fd5b02179055508260016000600254815260200190815260200160002060010190805190602001906200065092919062000adc565b507fa4035636e99f06b7651a604c1019fa4e8779fe68ef27eeb74dff2de348f6199b60025460016000600254815260200190815260200160002060000160149054906101000a900460ff166002811115620006d4577f4e487b7100000000000000000000000000000000000000000000000000000000600052602160045260246000fd5b83604051620006e6939291906200101c565b60405180910390a16002600081548092919062000703906200121a565b9190505550505050565b60008060009054906101000a900473ffffffffffffffffffffffffffffffffffffffff1673ffffffffffffffffffffffffffffffffffffffff163373ffffffffffffffffffffffffffffffffffffffff1614905090565b60008054906101000a900473ffffffffffffffffffffffffffffffffffffffff1681565b60016020528060005260406000206000915090508060000160009054906101000a900473ffffffffffffffffffffffffffffffffffffffff16908060000160149054906101000a900460ff1690806001018054620007e690620011e4565b80601f01602080910402602001604051908101604052809291908181526020018280546200081490620011e4565b8015620008655780601f10620008395761010080835404028352916020019162000865565b820191906000526020600020905b8154815290600101906020018083116200084757829003601f168201915b5050505050905083565b620008796200070d565b620008bb576040517f08c379a0000000000000000000000000000000000000000000000000000000008152600401620008b29062000f94565b60405180910390fd5b60016002811115620008f6577f4e487b7100000000000000000000000000000000000000000000000000000000600052602160045260246000fd5b6001600083815260200190815260200160002060000160149054906101000a900460ff16600281111562000953577f4e487b7100000000000000000000000000000000000000000000000000000000600052602160045260246000fd5b1462000996576040517f08c379a00000000000000000000000000000000000000000000000000000000081526004016200098d9062000ffa565b60405180910390fd5b60026001600083815260200190815260200160002060000160146101000a81548160ff02191690836002811115620009f7577f4e487b7100000000000000000000000000000000000000000000000000000000600052602160045260246000fd5b02179055507fa4035636e99f06b7651a604c1019fa4e8779fe68ef27eeb74dff2de348f6199b816001600084815260200190815260200160002060000160149054906101000a900460ff16600281111562000a7b577f4e487b7100000000000000000000000000000000000000000000000000000000600052602160045260246000fd5b6001600085815260200190815260200160002060000160009054906101000a900473ffffffffffffffffffffffffffffffffffffffff1660405162000ac3939291906200101c565b60405180910390a150565b610747806200136783390190565b82805462000aea90620011e4565b90600052602060002090601f01602090048101928262000b0e576000855562000b5a565b82601f1062000b2957805160ff191683800117855562000b5a565b8280016001018555821562000b5a579182015b8281111562000b5957825182559160200191906001019062000b3c565b5b50905062000b69919062000b6d565b5090565b5b8082111562000b8857600081600090555060010162000b6e565b5090565b600062000ba362000b9d846200108d565b62001059565b90508281526020810184848401111562000bbc57600080fd5b62000bc98482856200119f565b509392505050565b600082601f83011262000be357600080fd5b813562000bf584826020860162000b8c565b91505092915050565b60008135905062000c0f816200134c565b92915050565b60008151905062000c26816200134c565b92915050565b6000806040838503121562000c4057600080fd5b600083013567ffffffffffffffff81111562000c5b57600080fd5b62000c698582860162000bd1565b925050602062000c7c8582860162000bfe565b9150509250929050565b60006020828403121562000c9957600080fd5b600062000ca98482850162000bfe565b91505092915050565b60006020828403121562000cc557600080fd5b600062000cd58482850162000c15565b91505092915050565b62000ce981620010dc565b82525050565b62000cfa81620010f0565b82525050565b62000d0b816200113b565b82525050565b62000d1c8162001163565b82525050565b62000d2d816200118b565b82525050565b600062000d4082620010c0565b62000d4c8185620010cb565b935062000d5e818560208601620011ae565b62000d698162001324565b840191505092915050565b600062000d83601c83620010cb565b91507f4f776e61626c653a2063616c6c6572206973206e6f74206f776e6572000000006000830152602082019050919050565b600062000dc5601283620010cb565b91507f4e6f742066756c6c7920706169642079657400000000000000000000000000006000830152602082019050919050565b600062000e07602b83620010cb565b91507f4f6e6c79206974656d732061726520616c6c6f77656420746f2075706461746560008301527f207468656d73656c7665730000000000000000000000000000000000000000006020830152604082019050919050565b600062000e6f602383620010cb565b91507f4974656d206973206675727468657220696e2074686520737570706c7920636860008301527f61696e00000000000000000000000000000000000000000000000000000000006020830152604082019050919050565b62000ed38162001131565b82525050565b600060208201905062000ef0600083018462000cde565b92915050565b600060208201905062000f0d600083018462000cef565b92915050565b600060608201905062000f2a600083018662000d00565b62000f39602083018562000ec8565b62000f48604083018462000ec8565b949350505050565b600060608201905062000f67600083018662000d11565b62000f76602083018562000d22565b818103604083015262000f8a818462000d33565b9050949350505050565b6000602082019050818103600083015262000faf8162000d74565b9050919050565b6000602082019050818103600083015262000fd18162000db6565b9050919050565b6000602082019050818103600083015262000ff38162000df8565b9050919050565b60006020820190508181036000830152620010158162000e60565b9050919050565b600060608201905062001033600083018662000ec8565b62001042602083018562000ec8565b62001051604083018462000cde565b949350505050565b6000604051905081810181811067ffffffffffffffff82111715620010835762001082620012f5565b5b8060405250919050565b600067ffffffffffffffff821115620010ab57620010aa620012f5565b5b601f19601f8301169050602081019050919050565b600081519050919050565b600082825260208201905092915050565b6000620010e98262001111565b9050919050565b60008115159050919050565b60008190506200110c8262001335565b919050565b600073ffffffffffffffffffffffffffffffffffffffff82169050919050565b6000819050919050565b600062001148826200114f565b9050919050565b60006200115c8262001111565b9050919050565b6000620011708262001177565b9050919050565b6000620011848262001111565b9050919050565b60006200119882620010fc565b9050919050565b82818337600083830152505050565b60005b83811015620011ce578082015181840152602081019050620011b1565b83811115620011de576000848401525b50505050565b60006002820490506001821680620011fd57607f821691505b60208210811415620012145762001213620012c6565b5b50919050565b6000620012278262001131565b91507fffffffffffffffffffffffffffffffffffffffffffffffffffffffffffffffff8214156200125d576200125c62001268565b5b600182019050919050565b7f4e487b7100000000000000000000000000000000000000000000000000000000600052601160045260246000fd5b7f4e487b7100000000000000000000000000000000000000000000000000000000600052602160045260246000fd5b7f4e487b7100000000000000000000000000000000000000000000000000000000600052602260045260246000fd5b7f4e487b7100000000000000000000000000000000000000000000000000000000600052604160045260246000fd5b6000601f19601f8301169050919050565b6003811062001349576200134862001297565b5b50565b620013578162001131565b81146200136357600080fd5b5056fe608060405234801561001057600080fd5b50604051610747380380610747833981810160405281019061003291906100b3565b816000819055508060028190555082600360006101000a81548173ffffffffffffffffffffffffffffffffffffffff021916908373ffffffffffffffffffffffffffffffffffffffff16021790555050505061017e565b60008151905061009881610150565b92915050565b6000815190506100ad81610167565b92915050565b6000806000606084860312156100c857600080fd5b60006100d686828701610089565b93505060206100e78682870161009e565b92505060406100f88682870161009e565b9150509250925092565b600061010d82610126565b9050919050565b600061011f82610102565b9050919050565b600073ffffffffffffffffffffffffffffffffffffffff82169050919050565b6000819050919050565b61015981610114565b811461016457600080fd5b50565b61017081610146565b811461017b57600080fd5b50565b6105ba8061018d6000396000f3fe6080604052600436106100385760003560e01c80632986c0e5146102505780633c8da5881461027b57806383d12eef146102a657610241565b36610241576000543414610081576040517f08c379a000000000000000000000000000000000000000000000000000000000815260040161007890610420565b60405180910390fd5b6000600154146100c6576040517f08c379a00000000000000000000000000000000000000000000000000000000081526004016100bd90610440565b60405180910390fd5b34600160008282546100d891906104c2565b925050819055506000600360009054906101000a900473ffffffffffffffffffffffffffffffffffffffff1673ffffffffffffffffffffffffffffffffffffffff163460025460405160240161012e9190610480565b6040516020818303038152906040527f800fb83f000000000000000000000000000000000000000000000000000000007bffffffffffffffffffffffffffffffffffffffffffffffffffffffff19166020820180517bffffffffffffffffffffffffffffffffffffffffffffffffffffffff83818316178352505050506040516101b89190610409565b60006040518083038185875af1925050503d80600081146101f5576040519150601f19603f3d011682016040523d82523d6000602084013e6101fa565b606091505b505090508061023e576040517f08c379a000000000000000000000000000000000000000000000000000000000815260040161023590610460565b60405180910390fd5b50005b34801561024d57600080fd5b50005b34801561025c57600080fd5b506102656102d1565b6040516102729190610480565b60405180910390f35b34801561028757600080fd5b506102906102d7565b60405161029d9190610480565b60405180910390f35b3480156102b257600080fd5b506102bb6102dd565b6040516102c89190610480565b60405180910390f35b60025481565b60005481565b60015481565b60006102ee8261049b565b6102f881856104a6565b9350610308818560208601610522565b80840191505092915050565b60006103216021836104b1565b91507f576520646f6e277420737570706f7274207061727469616c207061796d656e7460008301527f73000000000000000000000000000000000000000000000000000000000000006020830152604082019050919050565b60006103876016836104b1565b91507f4974656d20697320616c726561647920706169642021000000000000000000006000830152602082019050919050565b60006103c76015836104b1565b91507f44656c697665727920646964206e6f7420776f726b00000000000000000000006000830152602082019050919050565b61040381610518565b82525050565b600061041582846102e3565b915081905092915050565b6000602082019050818103600083015261043981610314565b9050919050565b600060208201905081810360008301526104598161037a565b9050919050565b60006020820190508181036000830152610479816103ba565b9050919050565b600060208201905061049560008301846103fa565b92915050565b600081519050919050565b600081905092915050565b600082825260208201905092915050565b60006104cd82610518565b91506104d883610518565b9250827fffffffffffffffffffffffffffffffffffffffffffffffffffffffffffffffff0382111561050d5761050c610555565b5b828201905092915050565b6000819050919050565b60005b83811015610540578082015181840152602081019050610525565b8381111561054f576000848401525b50505050565b7f4e487b7100000000000000000000000000000000000000000000000000000000600052601160045260246000fdfea264697066735822122079d311e58f05c37460a7d5046e4836e58a5833ffba24dffc1b22f8e50f0d282564736f6c63430008000033a26469706673582212202211d9e437697de345392f720c3e4c98e4b6b2e5b276ec45b8a09056902b22a564736f6c63430008000033",
  "immutableReferences": {},
  "source": "// SPDX-License-Identifier: GPL-3.0\r\npragma solidity ^0.8.0;\r\n\r\nimport \"./Ownable.sol\";\r\nimport \"./Item.sol\";\r\n\r\n\r\ncontract ItemManager is Ownable {\r\n    \r\n    \r\n    struct S_Item{\r\n        Item _item;\r\n        ItemManager.SupplyChainSteps _step;\r\n        string _identifier;\r\n    }\r\n    mapping(uint => S_Item) public items;\r\n    uint index;\r\n    \r\n    enum SupplyChainSteps {Created,Paid,Delivered}\r\n    \r\n    event SupplyChainStep(uint _itemIndex,uint _step,address _address);\r\n    \r\n    function createItem(string memory _identifier,uint _priceInWei) public onlyOwner{\r\n        Item item = new Item(this, _priceInWei, index);\r\n        items[index]._item =item;\r\n        items[index]._step= SupplyChainSteps.Created;\r\n        items[index]._identifier =_identifier;\r\n        emit SupplyChainStep(index,uint(items[index]._step), address(item));\r\n        index++;\r\n    }\r\n    \r\n    function triggerPayment(uint _index) public payable {\r\n        Item item= items[_index]._item;\r\n        require(address(item)==msg.sender, \"Only items are allowed to update themselves\");\r\n        require(item.priceInWei()==msg.value, \"Not fully paid yet\");\r\n        require(items[index]._step== SupplyChainSteps.Created, \"Item is further in the supply chain\");\r\n        items[_index]._step = SupplyChainSteps.Paid;\r\n        emit SupplyChainStep(_index,uint(items[_index]._step), address(item));\r\n        \r\n    }\r\n      \r\n      \r\n      function triggerDelivery(uint _index) public onlyOwner {\r\n          require(items[_index]._step==SupplyChainSteps.Paid, \"Item is further in the supply chain\");\r\n          items[_index]._step= SupplyChainSteps.Delivered;\r\n          emit SupplyChainStep(_index,uint(items[_index]._step), address(items[_index]._item));\r\n      }\r\n}",
  "sourcePath": "C:\\Users\\HP\\Documents\\webprojects\\truffle_projects\\first_truffle_pjt\\contracts\\ItemManager.sol",
  "compiler": {
    "name": "solc",
    "version": "0.8.0+commit.c7dfd78e.Emscripten.clang"
  },
  "schemaVersion": "3.4.1",
  "updatedAt": "2021-07-03T06:56:15.152Z",
  "devdoc": {
    "kind": "dev",
    "methods": {},
    "version": 1
  },
  "userdoc": {
    "kind": "user",
    "methods": {},
    "version": 1
  }
}